:020000020000FC
:040000000C947405E3
:10000C000C9412043090008037FCFCCF03D000938A
:10001C000080089500D0000008952D3069F12A3039
:10002C00A9F10091008007FDFCCFF4DF209300C004
:10003C00089501E0E7CF02E0E5CF00E1E3CF04E172
:10004C00E1CF08E1DFCF0CE1DDCF0DE0DBCF0CE041
:10005C00D9CF0EE0D7CF0CE0D5CF05B7006C05BFDC
:10006C0001E0D0DF06E0CEDF0CE0CCDF08E3CADF36
:10007C000895022F0068C6CF0091008007FDFCCFC9
:10008C0000740068C7DF0093008008952F9320E46C
:10009C00F0DF2F910895FF91EF91EE0FFF1FAF93BB
:1000AC00BF93C8953196002021F04AF0002D13D053
:1000BC00F8CF3196F695E795BF91AF91099400FA78
:1000CC00002DC895A02DBB273196043879F0053842
:1000DC0081F015C0E6CF2F93FF93EF93E42DF52D10
:1000EC00202F0995EF91FF912F9108950C91F3DF3B
:1000FC00D8CF0D91002309F4D4CFEDDFFACF5F9365
:10010C004F933F932F939F938F937F936F932D9147
:10011C003D914D915D9106FD06C005FD0FC004FD9E
:10012C0010C003FD19C06AE0702F76957770729538
:10013C0080E0902F9295937093951AC062E094E0B2
:10014C0003C060E194E000C0702F7695777009F4DD
:10015C0078E0729580E00CC06AE0C895802D3196ED
:10016C00C895702D3196902F95959370939500C0EE
:10017C00943081F0933051F0923021F0332716F403
:10018C0027FD3FEF442716F437FD4FEF552716F4A4
:10019C0047FD5FEF09D06F917F918F919F912F91C8
:1001AC003F914F915F917DCFCF92BF92AF929F9233
:1001BC008F92BB18AA249924882486F4E89455239A
:1001CC006AF46894772309F07051509540953095F6
:1001DC0020950FEF201B300B400B500B882351F058
:1001EC005595479537952795B794A79497948794E9
:1001FC008A95B1F77F9372957F700EE20F9345D07D
:10020C000C2D30D00F9300272017300740075007D4
:10021C0029F07723A1F37A9591F707C0772329F07A
:10022C007A9519F000E257DFF9CF16F40DE253DF9F
:10023C000F910E3211F04FDFFBCF7F917F70772340
:10024C0059F049DF282D392D4A2D5B2D11D00C2D5D
:10025C0009D041DF7A95D1F78F909F90AF90BF90E6
:10026C00CF9008950A3010F4005D0895095A08954E
:10027C00CC2400E2889420FDC60EC7945795479570
:10028C00379527950A95B1F70895CC2400E2221FE3
:10029C00331F441F551FCC1CC61A08F4C60E0A95F2
:1002AC00B1F7221F331F441F551F509540953095B1
:1002BC00209508959924862E869408E008F4920ED1
:1002CC00979487940A95D1F70895AA189924862EA5
:1002DC00869408E010F4920EA31EA794979487942A
:1002EC000A95C1F70895BB18AA24862E972E9694CA
:1002FC00879400E110F4A20EB31EB794A7949794C0
:10030C0087940A95B9F70895BB18AA249924862EC8
:10031C00869408E018F4920EA31EB41EB794A7940A
:10032C00979487940A95B1F70895CC18BB24AA2406
:10033C00862E972E9694879400E118F4A20EB31E85
:10034C00C41EC794B794A794979487940A95A9F759
:10035C000895DD18CC24BB24862E972EA82EA694A7
:10036C009794879408E118F4B20EC31ED41ED79448
:10037C00C794B794A794979487940A95A1F7089576
:10038C00CC18BB24AA249924862E869408E020F449
:10039C00920EA31EB41EC51EC794B794A79497942F
:1003AC0087940A95A1F70895DD18CC24BB24AA24C0
:1003BC00862E972E9694879400E120F4A20EB31EFD
:1003CC00C41ED51ED794C794B794A79497948794BA
:1003DC000A9599F70895EE18DD24CC24BB24862EBB
:1003EC00972EA82EA6949794879408E120F4B20E29
:1003FC00C31ED41EE51EE794D794C794B794A79454
:10040C00979487940A9591F70895FF18EE24DD24AC
:10041C00CC24862E972EA82EB92EB694A7949794FA
:10042C00879400E220F4C20ED31EE41EF51EF7944E
:10043C00E794D794C794B794A794979487940A9504
:10044C0089F7089537DF27FD961A67FD921A0895EC
:10045C004ADF37FF02C0A61AB70A77FF02C0A21AFA
:10046C00B30A089576DF47FF03C0B61AC70AD80A45
:10047C0087FF03C0B21AC30AD40A0895C6DF57FF18
:10048C0004C0C61AD70AE80AF90A97FF04C0C21AB0
:10049C00D30AE40AF50A0895822ECC2408E0881CBD
:1004AC00CC1CC61A08F4C60E0A95C9F7881C809491
:1004BC000895822E932ECC2400E1881C991CCC1C10
:1004CC00C61A08F4C60E0A95C1F7881C991C90949C
:1004DC0080940895822E932EDD18CC2400E1881C84
:1004EC00991CCC1CDD1CC61AD70A10F4C60ED71EDC
:1004FC000A95A9F7881C991C909480940895822ED3
:10050C00932EA42ECC2408E1881C991CAA1CCC1C6C
:10051C00C61A08F4C60E0A95B9F7881C991CAA1CB1
:10052C00A094909480940895822E932EA42EDD187E
:10053C00CC2408E1881C991CAA1CCC1CDD1CC61AF6
:10054C00D70A10F4C60ED71E0A95A1F7881C991C61
:10055C00AA1CA094909480940895822E932EA42E7D
:10056C00EE18DD24CC2408E1881C991CAA1CCC1C98
:10057C00DD1CEE1CC61AD70AE80A18F4C60ED71EE4
:10058C00E81E0A9589F7881C991CAA1CA0949094C3
:10059C0080940895822E932EA42EB52ECC2400E2A6
:1005AC00881C991CAA1CBB1CCC1CC61A08F4C60EB1
:1005BC000A95B1F7881C991CAA1CBB1CB094A0947A
:1005CC00909480940895822E932EA42EB52EDD182F
:1005DC00CC2400E2881C991CAA1CBB1CCC1CDD1C66
:1005EC00C61AD70A10F4C60ED71E0A9599F7881C9E
:1005FC00991CAA1CBB1CB094A09490948094089550
:10060C00822E932EA42EB52EEE18DD24CC2400E2DF
:10061C00881C991CAA1CBB1CCC1CDD1CEE1CC61A0D
:10062C00D70AE80A18F4C60ED71EE81E0A9581F7F9
:10063C00881C991CAA1CBB1CB094A0949094809408
:10064C000895822E932EA42EB52EFF18EE24DD24B1
:10065C00CC2400E2881C991CAA1CBB1CCC1CDD1CE5
:10066C00EE1CFF1CC61AD70AE80AF90A20F4C60EBB
:10067C00D71EE81EF91E0A9569F7881C991CAA1C3E
:10068C00BB1CB094A0949094809408953F92342E07
:10069C00382647FF07C04095309520950FEF201B5B
:1006AC00300B400B87FF07C08095709560950FEF5E
:1006BC00601B700B800B51DF37FE07C0A094909429
:1006CC0080940FEF801A900AA00A08951B981D9829
:1006DC001398159A0895159A139815981398159AB6
:1006EC000000139815980000139A0000159A00004A
:1006FC001598000013980000159A2095159A02B1D0
:10070C0027FB03F902B9159800C0159A02B126FB14
:10071C0003F902B9159800C0159A02B125FB03F92B
:10072C0002B9159800C0159A02B124FB03F902B95D
:10073C00159800C0159A02B123FB03F902B915985C
:10074C0000C0159A02B122FB03F902B9159800C03A
:10075C00159A02B121FB03F902B9159800C0159A3C
:10076C0002B120FB03F902B9159800C02095159A27
:10077C0013980000159801B103FB159A139808956E
:10078C00159A13981598000001B103FB27F9159AD7
:10079C0013981598000001B103FB26F9159A1398CC
:1007AC001598000001B103FB25F9159A13981598BB
:1007BC00000001B103FB24F9159A13981598000059
:1007CC0001B103FB23F9159A13981598000001B198
:1007DC0003FB22F9159A13981598000001B103FB3D
:1007EC0021F9159A13981598000001B103FB20F913
:1007FC0008951398159A139A15980000159A139842
:10080C000895159A139815980000159A0895159A3D
:10081C00139A159813980895C43011F0C39503C01A
:10082C00CC2707DC1895C13049F508EC302E01E0D7
:10083C000F933F9200E3302E06E03A94F1F73A948E
:10084C000A95D9F73F900F913A9491F70A9581F751
:10085C00262DEFDB03E1402E00E0502E1CDC54650E
:10086C006D704C6F77203D8812012243000086D0BA
:10087C00622E033009F40C941204D5CFC23049F522
:10088C0008EC302E01E00F933F9200E3302E06E08F
:10089C003A94F1F73A940A95D9F73F900F913A941C
:1008AC0091F70A9581F7272DC4DB03E1402E00E078
:1008BC00502EF1DB54656D70486967683D881201F4
:1008CC00224300005BD0722E033009F40C94120406
:1008DC00D5CFC33041F508EC302E01E00F933F9299
:1008EC0000E3302E06E03A94F1F73A940A95D9F7E2
:1008FC003F900F913A9491F70A9581F72A2F99DB43
:10090C0003E1402E00E0502EC6DB48756D4C6F772E
:10091C003D8812012225000031D0A22F033009F4AA
:10092C000C941204D6CFC43049F408EC302E01E0FC
:10093C000F933F9200E3302E06E03A94F1F73A948D
:10094C000A95D9F73F900F913A9491F70A9581F750
:10095C002B2F6FDB03E1402E00E0502E9CDB487503
:10096C006D486967683D208812012225000006D079
:10097C00B22F033009F40C941204D5CF00B30B70D2
:10098C00093009F423950A3009F42A95089564E690
:10099C0090DD08E2801A9924662708956FE189DDBD
:1009AC00992408950EEF02230695801668F08016A0
:1009BC0069F401E002238F92202F62E37BDC082D87
:1009CC008F90C01608F002C0D1E001C0D0E00895AD
:1009DC000EEF03230695081568F0081569F401E07D
:1009EC0003238F92202F62E365DC082D8F900C156A
:1009FC0008F002C0D2E001C0D0E008951CDBD0307A
:100A0C0081F403E1402E00E0502E45DB543DC0083C
:100A1C002EC40C4320204F4B2020202000000FEF31
:100A2C0008BBD13081F403E1402E00E0502E33DBC3
:100A3C00543DC0082EC40C432020494E4620202093
:100A4C00200000E008BBD23081F403E1402E00E02E
:100A5C00502E21DB543DC0082EC40C43202053558E
:100A6C0050202020200000E008BB089520E401DB8A
:100A7C00D03079F403E1402E00E0502E0CDB483DE1
:100A8C00C0082EC40C2520204F4B202020000FEF37
:100A9C0008BBD13081F403E1402E00E0502EFBDA8C
:100AAC00483DC0082EC40C252020494E462020204D
:100ABC00200000E008BBD23081F403E1402E00E0BE
:100ACC00502EE9DA483DC0082EC40C252020535581
:100ADC0050202020200000E008BB08950FEF0DBF30
:100AEC000FE00EBFBADAA5DAA6DA03E1402E00E079
:100AFC00502ED1DA494E495449414C49534154493D
:100B0C004F4E0000E3DD03E3602E0FE3702EA3E3F2
:100B1C00BFE7C0E004E009BF0FEF07BB0FEF08BB56
:100B2C0000E001BBC0E0789400ED302E08E00F939C
:100B3C003F9200E3302E06E03A94F1F73A940A958E
:100B4C00D9F73F900F913A9491F70A9581F700C02D
:100B5C0023E026D01CDF262D372D24DFD13009F0E1
:100B6C0037DF4CDF25E01CD019DF2A2F3B2F1ADF93
:100B7C00D13009F02DDF7ADF08EE302E04E00F9330
:100B8C003F9200E3302E06E03A94F1F73A940A953E
:100B9C00D9F73F900F913A9491F70A9581F7D8CFF6
:100BAC009DDD0AEF302E01E00F933F9200E3302ED3
:100BBC0006E03A94F1F73A940A95D9F73F900F91E1
:100BCC003A9491F70A9581F7DBDD322F222711DE5B
:060BDC00D7DD17DE0895CD
:00000001FF
